:100000000C94A4000C94CC000C94CC000C9413061B
:100010000C9427060C941D060C94CC000C94CC0078
:100020000C94CC000C94CC000C94CC000C94CC0020
:100030000C94CC000C94CC000C94CC000C94CC0010
:100040000C94A6060C94CC000C946C060C9431060F
:100050000C94CC000C94CC000C94CC000C94CC00F0
:100060000C94CC000C94CC0007634236B79BD8A705
:100070001A39685618AEBAAB558C1D3CB7CC5763CD
:10008000BD6DEDFD753EF6177231BF000000803F7B
:1000900008000000BE922449123EABAAAA2ABECD97
:1000A000CCCC4C3E00000080BEABAAAAAA3E000009
:1000B0000000BF000000803F000000000008417801
:1000C000D3BB4387D1133D190E3CC3BD4282AD2B38
:1000D0003E68EC8276BED98FE1A93E4C80EFFFBE30
:1000E00001C4FF7F3F00000000000000000024006A
:1000F00027002A0000000007000201000003040698
:1001000000000000000000000000000023002600A6
:10011000290000000000250028002B00040404042E
:1001200004040404020202020202030303030303A1
:10013000010204081020408001020408102001027E
:1001400004081020F006760A11241FBECFEFD4E079
:10015000DEBFCDBF11E0A0E0B1E0E2EAFDE102C008
:1001600005900D92A433B107D9F722E0A4E3B1E0E2
:1001700001C01D92AD35B207E1F710E0C3EAD0E04F
:1001800004C02197FE010E94BE0EC23AD107C9F7F2
:100190000E94D8070C94A90A0C9400008F929F9299
:1001A000AF92BF92CF92DF92EF92FF92CF93DF9305
:1001B000A0913602882311F03A2F01C030E08091DF
:1001C000370290E0880F991F885F9E4FC0903C02D5
:1001D000D0903D02E0903E02F0903F0240E050E0BF
:1001E000BA01FC01C591D49128812A23231314C09C
:1001F0004A015B012FEF821A920AA20AB20A4C1539
:100200005D056E057F0518F4B501A401EACF30E065
:1002100020E080E090E003C0342F252FCB01632F36
:10022000722FDF91CF91FF90EF90DF90CF90BF9032
:10023000AF909F908F900895DC015196ED91FC91C5
:100240005297908150968C91809589238083089550
:10025000089590E0FC01EC50FF4F2491FC01E05D1B
:10026000FE4F3491FC01E45EFE4FE491EE2309F46D
:100270003CC0222339F1233091F038F42130A9F029
:10028000223001F584B58F7D12C0263091F02730E1
:10029000A1F02430B9F4809180008F7D03C080915B
:1002A00080008F77809380000DC084B58F7784BDE8
:1002B00009C08091B0008F7703C08091B0008F7D1E
:1002C0008093B000F0E0EE0FFF1FEE5EFE4FA591B1
:1002D000B4919FB7F894611104C08C913095382384
:1002E00002C0EC913E2B3C939FBF0895CF93DF93C8
:1002F00090E0FC01E05DFE4F2491FC01E45EFE4FC6
:100300008491882361F190E0880F991FFC01E651E8
:10031000FF4FC591D491FC01EE5EFE4FA591B491C3
:10032000611109C09FB7F894888120958223888342
:10033000EC912E230BC0623061F49FB7F894888152
:10034000322F309583238883EC912E2B2C939FBFE3
:1003500006C08FB7F894E8812E2B28838FBFDF91DA
:10036000CF910895892B81F490917A018091790140
:10037000981751F0E0917A01F0E0E75CFE4F808140
:10038000082E000C990B08958FEF9FEF0895892B8D
:1003900039F48FB7F8941092790110927A018FBFD7
:1003A0000895892B71F48091790120917A0190E070
:1003B000805C9F4F821B910960E470E00E94740E84
:1003C000089580E090E00895892BB9F490917A0126
:1003D00080917901981789F0E0917A01F0E0E75C6B
:1003E000FE4F808120917A0130E02F5F3F4F2F73C5
:1003F000332720937A0190E008958FEF9FEF0895BF
:1004000020E001972FEF8F3F9207D9F708950F93C0
:100410001F93CF93DF93FC01A685B7858D01005C08
:100420001F4FE8018881998101968F739927AD014B
:100430004E5B5F4FEA012881398128173907D1F3D4
:10044000E80128813981A20FB31F6C93A685B78577
:10045000A05CBF4F11969C938E93A689B7892C916F
:1004600081E090E0078C02C0880F991F0A94E2F7A0
:10047000822B8C9381E081A30488F589E02D808113
:100480008064808381E090E0DF91CF911F910F9194
:100490000895FC0181A1882329F0A489B5898C9154
:1004A00086FFFBCF11A20895FC01A485B585FD014F
:1004B000E05CFF4F20813181329680819181281745
:1004C000390779F080819181A80FB91F8C91208123
:1004D00031812F5F3F4F2F7333273183208390E08B
:1004E00008958FEF9FEF0895DC011C96ED91FC912C
:1004F0001D97DF01A05CBF4F2D913C911197129683
:100500008D919C9111972817390739F08D919C9105
:10051000E80FF91F808190E008958FEF9FEF089515
:10052000FC0124853585F901E05CFF4F80819181D4
:10053000329620813181821B930B8F739927089506
:1005400087E092E00C949002CF92DF92EF92FF92BC
:100550000F931F93CF93DF936C01EB017B01E40EAC
:10056000F51E00E010E0CE15DF0561F06991D601BF
:10057000ED91FC910190F081E02DC6010995080FE5
:10058000191FF1CFC801DF91CF911F910F91FF90FB
:10059000EF90DF90CF9008958E3008F08E508770E6
:1005A000806480937C0080917A00806480937A00DC
:1005B00080917A0086FDFCCF8091780020917900AF
:1005C00090E0922B089580912E020E94CC02BC01F3
:1005D000990F880B990B0E94C80B9B01AC0160E03E
:1005E00070EC8FE794E40E941E0B20E030E040E8BE
:1005F0005FE30E94AC0A20E030E040E251E40E9458
:100600007D0C08953FB7F8948091350190913601A3
:10061000A0913701B091380126B5A89B05C02F3FA6
:1006200019F00196A11DB11D3FBFBA2FA92F982F18
:100630008827820F911DA11DB11DBC01CD0142E093
:10064000660F771F881F991F4A95D1F70895CF929B
:10065000DF92EF92FF92CF93DF936B017C010E94B8
:100660000203EB01C114D104E104F10479F00E940A
:1006700002036C1B7D0B683E7340A0F381E0C81A37
:10068000D108E108F108C851DC4FECCFDF91CF91E0
:10069000FF90EF90DF90CF900895CF92DF92EF928E
:1006A000FF920F931F93CF93DF93CDB7DEB7C05464
:1006B000D1400FB6F894DEBF0FBECDBF2FB7F89470
:1006C00080917B0190917C01A0917D01B0917E0190
:1006D0002FBF409138025091390260913A027091D7
:1006E0003B028C019D01041B150B260B370BB90136
:1006F000A801403D57406105710518F48091400202
:10070000BCC08093380290933902A0933A02B09310
:100710003B02109233021092320210923102109278
:10072000300210922F0261E0809134020E94290170
:100730006AEF70E080E090E00E94270361E0809122
:1007400034020E94760160E0809134020E94290107
:1007500064E170E080E090E00E942703F89461E09B
:10076000809134020E9429018AE990E00197F1F713
:1007700062E0809134020E94760182E290E001976B
:10078000F1F780E00E94CE00672B682B692B21F4E3
:100790001092400278943EC081E00E94CE00672B08
:1007A000682B692BA9F38E010F5F1F4F6E012FEB92
:1007B000C21A2EEFD20A780180E00E94CE00F70123
:1007C000608371838283938381E00E94CE00F7016E
:1007D0006483758386839783F8E0EF0EF11CEC1435
:1007E000FD0451F7789420E030E0F801C080D1801A
:1007F000E280F3804481558166817781C114D10400
:10080000E104F10429F0411551056105710521F458
:100810001092400280E031C0F90183E0F595E79540
:100820008A95E1F7E15DFD4F8081880FC416D506FA
:10083000E606F70608F4816080832F5F3F4F085F6C
:100840001F4F2832310589F62091330230E0409164
:100850002F028091300290E0840F911D409131026F
:10086000840F911D40913202840F911D9927281702
:10087000390771F681E080934002C05CDE4F0FB60D
:10088000F894DEBF0FBECDBFDF91CF911F910F91C6
:10089000FF90EF90DF90CF900895DF92EF92FF925C
:1008A0000F931F93CF93DF93EC01298D3A8D211580
:1008B000310529F481E090E09B838A835AC0162F8A
:1008C000DFB6F8948B8D81FD4DC0CE010E941C01D6
:1008D000898D9A8D05960E9400028B8D98E0E92EF5
:1008E000F12C01E081FF1AC0812F802321F0CE017D
:1008F0000E941C0106C0E989FA8990818889892BA8
:100900008083898D9A8D0E940002000F81E0E81A91
:10091000F10851F7CE010E941C011CC0812F8023D9
:1009200039F0E989FA8990818889892B808303C00D
:10093000CE010E941C01898D9A8D0E940002000F39
:1009400081E0E81AF10851F7E989FA8990818889EC
:10095000892B8083DFBE898D9A8D0E94000221E061
:1009600030E007C0E989FA8990818889892B8083E2
:10097000AFCFC901DF91CF911F910F91FF90EF9001
:10098000DF900895009769F0FC0101900020E9F7DD
:100990003197AF01481B590BBC0187E092E00C94E2
:1009A000A40280E090E008958F929F92AF92BF9250
:1009B000EF92FF920F931F93CF93DF93CDB7DEB7E4
:1009C000A1970FB6F894DEBF0FBECDBF162F042F30
:1009D00019A2423008F40AE07E0121E2E20EF11C85
:1009E000802E912CA12CB12C612FA50194010E9485
:1009F000880E029F1019112481E0E81AF1081A30BC
:100A000014F4105D01C0195CF7011083122F732FCD
:100A1000CA01232B242B252B39F7C7010E94C204BE
:100A2000A1960FB6F894DEBF0FBECDBFDF91CF9178
:100A30001F910F91FF90EF90BF90AF909F908F907C
:100A400008954F925F926F927F928F929F92AF9292
:100A5000BF92CF92DF92EF92FF92CF93DF936B0121
:100A60007C01B42E9B01AC010E943A0D882319F041
:100A700080E291E027C026013701E89477F82FEF54
:100A80003FEF4FE75FE7C301B2010E943A0D8111CA
:100A90000DC02FEF3FEF4FE75FE7C301B2010E94A8
:100AA000190B18161CF484E291E00CC02FEF3FEFF5
:100AB0004FE75FE4C701B6010E94780C181694F462
:100AC00088E291E0DF91CF91FF90EF90DF90CF909F
:100AD000BF90AF909F908F907F906F905F904F905E
:100AE0000C94C2042FEF3FEF4FE75FECC701B60154
:100AF0000E94190B87FDE4CF20E030E0A901C70177
:100B0000B6010E94190B87FF0BC06DE287E092E0EF
:100B10000E940702EC01F7FAF094F7F8F09402C093
:100B2000C0E0D0E0A12C60E070E080E09FE3BA1468
:100B300041F020E030E040E251E40E941E0BA3941B
:100B4000F6CFA70196010E94AD0A6B017C010E94BD
:100B5000970B2B013C014AE00E94D404C80FD91F17
:100B6000BB2009F450C0C301B2010E94C60B9B0117
:100B7000AC01C701B6010E94AC0A2B013C018CE21A
:100B800091E00E94C204C80FD91FFB2C20E030E086
:100B900040E251E4C301B2010E947D0C2B013C01F3
:100BA0000E94900B4B01770FAA08BB08B7FE15C037
:100BB0006DE287E092E00E9407026C018827992786
:100BC000DC0188199909AA09BB094AE0BC01CD01D9
:100BD0000E94D4048C0D9D1D05C04AE0C501B401DE
:100BE0000E94D404C80FD91FC501B4010E94C80BCC
:100BF0009B01AC01C301B2010E94AC0A2B013C0174
:100C0000FA94F110C3CFCE01DF91CF91FF90EF9016
:100C1000DF90CF90BF90AF909F908F907F906F901C
:100C20005F904F9008951F920F920FB60F9211246C
:100C30000F900FBE0F901F9018951F920F920FB636
:100C40000F9211240F900FBE0F901F9018951F92B6
:100C50000F920FB60F9211240F900FBE0F901F909E
:100C600018951F920F920FB60F9211242F933F9356
:100C70008F939F93EF93FF932091BF013091C00119
:100C80008091C1019091C2012817390731F48091F8
:100C9000C1008F7D8093C10014C0E091C101F0912B
:100CA000C201E158FE4F20818091C1019091C201A3
:100CB00001968F7399279093C2018093C10120936D
:100CC000C600FF91EF919F918F913F912F910F90CF
:100CD0000FBE0F901F9018951F920F920FB60F9294
:100CE00011242F934F935F938F939F93EF93FF93D1
:100CF0008091C00082FD1CC02091C600809103023B
:100D000090910402409105025091060201968F7362
:100D100099274817590771F0E0910302F0910402F6
:100D2000ED53FE4F2083909304028093030202C090
:100D30008091C600FF91EF919F918F915F914F91AC
:100D40002F910F900FBE0F901F9018951F920F922A
:100D50000FB60F9211242F933F938F939F93AF93CE
:100D6000BF9380917B0190917C01A0917D01B09116
:100D70007E013091340123E0230F2D3720F40196BA
:100D8000A11DB11D05C026E8230F0296A11DB11DAE
:100D90002093340180937B0190937C01A0937D018B
:100DA000B0937E018091350190913601A091370179
:100DB000B09138010196A11DB11D8093350190932A
:100DC0003601A0933701B0933801BF91AF919F9145
:100DD0008F913F912F910F900FBE0F901F901895FC
:100DE00010920A021092090288EE93E0A0E0B0E0AF
:100DF00080930B0290930C02A0930D02B0930E020D
:100E000024E031E0309308022093070223EC31E024
:100E100030931402209313022FE731E0309316022F
:100E20002093150225EC30E030931802209317022E
:100E300024EC30E030931A022093190220EC30E0C9
:100E400030931C0220931B0221EC30E030931E02F1
:100E500020931D0222EC30E03093200220931F02E9
:100E600026EC30E0309322022093210224E02093EC
:100E7000230223E02093240227E02093250225E08B
:100E80002093260221E02093270210924402109220
:100E900043028093450290934602A0934702B09389
:100EA000480284E191E090934202809341021092C3
:100EB000550210925402109257021092560210924C
:100EC00059021092580210925B0210925A028091BD
:100ED0005C028E7F8D7F80935C0261E08AE00E94DD
:100EE000760161E08AE00E942901EAE3F1E0E49101
:100EF000E0935102E6E2F1E0E491F0E0EE0FFF1F33
:100F0000EE5EFE4F8591949190935302809352022E
:100F100060E08BE00E94760180915C0281FD04C05C
:100F200061E08BE00E9429018BE080934D02EBE3AE
:100F3000F1E0E491E0934E02E7E2F1E0E491F0E0C9
:100F4000EE0FFF1FE85FFE4F259134913093500262
:100F500020934F0295E09093340280933502E5E3AD
:100F6000F1E0E491E0933602E1E2F1E0E491E09314
:100F7000370280E89EE3A0E0B0E080933C029093CB
:100F80003D02A0933E02B0933F0282E180932E0285
:100F90008EE08093290280E090E0A0EAB0E48093A4
:100FA0002A0290932B02A0932C02B0932D02089555
:100FB000CF93DF93CDB7DEB72C970FB6F894DEBF93
:100FC0000FBECDBF789484B5826084BD84B5816046
:100FD00084BD85B5826085BD85B5816085BD809104
:100FE0006E00816080936E0010928100809181007C
:100FF0008260809381008091810081608093810074
:10100000809180008160809380008091B100846035
:101010008093B1008091B00081608093B000809196
:101020007A00846080937A0080917A008260809355
:101030007A0080917A00816080937A0080917A00B2
:10104000806880937A001092C100E0911B02F091B9
:101050001C0281E090E09C010090270202C0220F58
:10106000331F0A94E2F72083E0911702F0911802EF
:101070001082E0911902F0911A022FEC2083109255
:101080002802E0911D02F0911E0240819C01009017
:10109000230202C0220F331F0A94E2F7242B20837D
:1010A000E0911D02F0911E0240819C0100902402FB
:1010B00002C0220F331F0A94E2F7242B2083E09111
:1010C0001D02F0911E0240819C010090250202C089
:1010D000220F331F0A94E2F7242B2083E0911D0294
:1010E000F0911E0220810090260202C0880F991FF5
:1010F0000A94E2F780958223808362E08091340233
:101100000E94760180E398EFAFEFBFEF8093380243
:1011100090933902A0933A02B0933B020E944D0390
:10112000882309F440C0809135028B3029F0D8F132
:101130008551823058F037C06091310270E080E014
:1011400090E00E94C60B6B017C0133C020913102FC
:101150002983622F6F7770E080E090E00E94C80BD7
:1011600020E030E040E853E40E947D0C6B017C01FC
:101170006091320270E080E090E00E94C80BA7010D
:1011800096010E94AD0A2DEC3CEC4CEC5DE30E9414
:101190007D0C6B017C01398137FF0BC0F7FAF094AD
:1011A000F7F8F09406C0C12CD12C90ECE92E9FE703
:1011B000F92E0E944D03882399F1809135028B30DE
:1011C00029F170F18551823058F560912F0270E05D
:1011D00080E090E00E94C60B20E030E040E853E45D
:1011E0000E947D0C4B015C016091300270E080E058
:1011F00090E00E94C80BA50194010E94AD0A2DEC5D
:101200003CEC4CEC5DE30E947D0C07C060912F022A
:1012100070E080E090E00E94C60B1B012C0106C02C
:10122000212C312C80EC482E8FE7582E80912902FA
:101230000E94CC0220912A0230912B0240912C0274
:1012400050912D0229833A834B835C83BC01990F13
:10125000880B990B0E94C80B4B015C0120E030EC1D
:101260004FE754E469817A818B819C810E941E0B37
:101270009B01AC01C501B4010E947D0C4B015C01D6
:101280009B01AC0169817A818B819C810E94AC0AAF
:10129000A50194010E941E0B2AE037ED43E25FEBAB
:1012A0000E94EA0C2CE53FE84AE951E40E947D0CDB
:1012B0006D837E838F8398870E94E3020E94E302FE
:1012C0000E94E3020E94E3022FE832E449E952E47B
:1012D0000E941E0B2EED37E341E350EC0E94EA0C16
:1012E00022E434E349EE52E40E947D0C69837A8360
:1012F0008B839C830E94E30269877A878B879C8714
:1013000020E030E040EA51E4C701B6010E94190B29
:1013100087FF39C024E330E847EB59E3C701B60142
:101320000E947D0CA70196010E947D0C4B015C017F
:1013300027E938EA4EED5CE3C701B6010E947D0C57
:101340009B01AC01C501B4010E94AC0A20ED3BE950
:1013500042EB5FE30E94AD0A4B015C0120E030E00C
:1013600044E052E4C201B1010E94AC0A2AEF3DEE12
:101370004BEE5AE30E947D0C9B01AC01C501B40108
:101380000E94AC0A1EC02CE034E74AE55BEBC701C3
:10139000B6010E947D0C4B015C0122EC3FE04CEF5A
:1013A0005AEBC201B1010E947D0C9B01AC01C50149
:1013B000B4010E94AD0A2BE038EA40E95FE30E94E5
:1013C000AD0A9B01AC0169857A858B859C850E945D
:1013D0001E0B2FE832E449E952E40E941E0B2EED69
:1013E00037E341E350EC0E94EA0C4B015C018FE0D3
:1013F0000E94CC023C0142E0C701B6010E942105D7
:101400008EE291E00E94C20442E0C201B1010E945A
:1014100021058EE291E00E94C204B301770C880B93
:10142000990B0E94C80B2AE939E94CEC53E40E945D
:101430001E0B9B01AC0160E070E080EA90E40E942A
:101440001E0B20E030E040E85FE30E94AC0A9B0105
:10145000AC0160E070EE8BEA96E40E941E0B2DEB6F
:1014600037E346E057E30E947D0C20EC3CEE4EE96A
:101470005CE30E94AC0A20E030E04AE754E40E94BA
:101480007D0C42E00E9421058EE291E00E94C204A0
:1014900042E069817A818B819C810E9421058EE2E4
:1014A00091E00E94C20422E434E349EE52E4C50113
:1014B000B4010E947D0C42E00E9421058EE291E081
:1014C0000E94C20442E06D817E818F8198850E94D6
:1014D000210581E391E00E94C20468EE73E080E0A0
:1014E00090E00E9427030E94A00218CE84E191E0C0
:1014F000909342028093410220914D02263140F5A3
:10150000283028F02E3030F0ECE6F0E005C0EDE6B3
:10151000F0E002C0EBE6F0E03081283038F481E002
:1015200090E001C0880F2A95EAF70FC0422F50E0E3
:101530002E3018F44850510902C04E50510981E034
:1015400090E001C0880F4A95EAF780958323808355
:101550000895F8940C94C40E5058BB27AA270E94F3
:10156000C40A0C943E0C0E94300C38F00E94370CD8
:1015700020F039F49F3F19F426F40C942D0C0EF44E
:10158000E095E7FB0C94270CE92F0E944F0C58F3D1
:10159000BA17620773078407950720F079F4A6F558
:1015A0000C94710C0EF4E0950B2EBA2FA02D0B01AC
:1015B000B90190010C01CA01A0011124FF27591B98
:1015C00099F0593F50F4503E68F11A16F040A22F9E
:1015D000232F342F4427585FF3CF4695379527950F
:1015E000A795F0405395C9F77EF41F16BA0B620B0E
:1015F000730B840BBAF09150A1F0FF0FBB1F661F55
:10160000771F881FC2F70EC0BA0F621F731F841F97
:1016100048F4879577956795B795F7959E3F08F0BD
:10162000B0CF9395880F08F09927EE0F979587957F
:1016300008950E94030C08F481E008950E94320B83
:101640000C943E0C0E94370C58F00E94300C40F075
:1016500029F45F3F29F00C94270C51110C94720C63
:101660000C942D0C0E944F0C68F39923B1F3552371
:1016700091F3951B550BBB27AA27621773078407A5
:1016800038F09F5F5F4F220F331F441FAA1FA9F33B
:1016900035D00E2E3AF0E0E832D091505040E69529
:1016A000001CCAF72BD0FE2F29D0660F771F881F8A
:1016B000BB1F261737074807AB07B0E809F0BB0B7D
:1016C000802DBF01FF2793585F4F3AF09E3F510591
:1016D00078F00C94270C0C94720C5F3FE4F3983E66
:1016E000D4F3869577956795B795F7959F5FC9F77A
:1016F000880F911D9695879597F90895E1E0660FFB
:10170000771F881FBB1F621773078407BA0720F073
:10171000621B730B840BBA0BEE1F88F7E0950895DC
:101720000E94970B6894B1110C94720C08950E945A
:10173000570C88F09F5798F0B92F9927B751B0F000
:10174000E1F0660F771F881F991F1AF0BA95C9F745
:1017500014C0B13091F00E94710CB1E008950C9466
:10176000710C672F782F8827B85F39F0B93FCCF319
:10177000869577956795B395D9F73EF490958095C2
:10178000709561957F4F8F4F9F4F0895E89409C0E2
:1017900097FB3EF490958095709561957F4F8F4FA4
:1017A0009F4F9923A9F0F92F96E9BB279395F695BA
:1017B000879577956795B795F111F8CFFAF4BB0F38
:1017C00011F460FF1BC06F5F7F4F8F4F9F4F16C09C
:1017D000882311F096E911C0772321F09EE8872F26
:1017E000762F05C0662371F096E8862F70E060E0E2
:1017F0002AF09A95660F771F881FDAF7880F96955B
:10180000879597F90895990F0008550FAA0BE0E8FE
:10181000FEEF16161706E807F907C0F012161306B2
:10182000E407F50798F0621B730B840B950B39F4F2
:101830000A2661F0232B242B252B21F408950A2658
:1018400009F4A140A6958FEF811D811D089597F998
:101850009F6780E870E060E008959FEF80EC089556
:1018600000240A941616170618060906089500247F
:101870000A9412161306140605060895092E0394F9
:10188000000C11F4882352F0BB0F40F4BF2B11F46D
:1018900060FF04C06F5F7F4F8F4F9F4F089557FDCC
:1018A0009058440F551F59F05F3F71F04795880FCE
:1018B00097FB991F61F09F3F79F087950895121665
:1018C00013061406551FF2CF4695F1DF08C0161611
:1018D00017061806991FF1CF8695710561050894C2
:1018E0000895E894BB2766277727CB0197F90895D9
:1018F0000E94030C08F48FEF08950E94900C0C9442
:101900003E0C0E94300C38F00E94370C20F09523DA
:1019100011F00C94270C0C942D0C11240C94720CC7
:101920000E944F0C70F3959FC1F3950F50E0551F27
:10193000629FF001729FBB27F00DB11D639FAA2724
:10194000F00DB11DAA1F649F6627B00DA11D661F73
:10195000829F2227B00DA11D621F739FB00DA11D94
:10196000621F839FA00D611D221F749F3327A00D4E
:10197000611D231F849F600D211D822F762F6A2FEA
:1019800011249F5750409AF0F1F088234AF0EE0F4F
:10199000FF1FBB1F661F771F881F91505040A9F77C
:1019A0009E3F510580F00C94270C0C94720C5F3F05
:1019B000E4F3983ED4F3869577956795B795F795B8
:1019C000E7959F5FC1F7FE2B880F911D9695879530
:1019D00097F90895FA01EE0FFF1F309621053105A2
:1019E000A1F16115710561F48038BFE39B0749F1EE
:1019F00068949038810561F08038BFEF9B0741F013
:101A000099234AF5FF3FE1053105210519F1E894D5
:101A10000894E795D901AA2329F4AB2FBE2FF85FCC
:101A2000D0F310C0FF5F70F4A695E0F7F73950F0DF
:101A300019F0FF3A38F49F779F930DD00F9007FC71
:101A40009058089546F00C942D0C60E070E080E80A
:101A50009FE308954FE79F775F934F933F932F93B3
:101A60000E94EA0D2F913F914F915F910E947D0C52
:101A70000C94470D0E94030C880B990B089529F4D0
:101A800016F00C94270C0C94710C0C942D0C0E94E5
:101A9000570CA8F39638A0F707F80F92E8942BE3B9
:101AA0003AEA48EB5FE70E94930C0F920F920F9275
:101AB0004DB75EB70F920E94320EE8E6F0E00E944A
:101AC000790D4F915F91EF91FF91E595EE1FFF1F0B
:101AD00049F0FE57E0684427EE0F441FFA95E1F7FE
:101AE0004195550B0E94AC0D0F9007FE0C94A00D74
:101AF0000895DF93CF931F930F93FF92EF92DF929E
:101B00007B018C01689406C0DA2EEF010E94900CD4
:101B1000FE01E894A5912591359145915591A6F343
:101B2000EF010E94C40AFE019701A801DA9469F747
:101B3000DF90EF90FF900F911F91CF91DF9108956B
:101B40009B01AC0160E070E080E89FE30C941E0B09
:101B50000C94270C0C94660E0E94570CD8F3992312
:101B6000C9F3940F511DA3F39150504094F059F0D4
:101B7000882332F0660F771F881F91505040C1F7BD
:101B80009E3F51052CF7880F911D9695879597F9E3
:101B900008955F3FACF0983E9CF0BB278695779503
:101BA0006795B79508F4B1609395C1F7BB0F58F7E7
:101BB00011F460FFE8CF6F5F7F4F8F4F9F4FE3CFF0
:101BC0000C94720C16F00C94660E0C942D0C689408
:101BD0000C94270C0E94570CA8F39923C1F3AEF381
:101BE000DF93CF931F930F93FF92C92FDD27882395
:101BF0002AF02197660F771F881FDAF720E030E080
:101C000040E85FEB9FE3883920F0803E38F0219672
:101C10008F770E94AD0AE0E9F0E004C00E94AD0AAF
:101C2000EDEBF0E00E94790D8B01BE01EC01FB2E83
:101C30006F5771097595771F880B990B0E94C80B18
:101C400028E132E741E35FE30E94900CAF2D980159
:101C5000AE01FF900F911F91CF91DF910E94C40AB6
:101C60000C943E0CFA01DC01AA0FBB1F9B01AC01D6
:101C7000BF5728F4222733274427507820C0B75174
:101C800090F4AB2F0024469537952795011CA3951A
:101C9000D2F3002071F0220F331F441FB395DAF303
:101CA0000ED00C94AC0A61307105A0E88A07B946E1
:101CB00030F49B01AC01662777278827907830960F
:101CC00021F0208331834283538308959F3F31F075
:101CD000915020F4879577956795B795880F911D5A
:101CE0009695879597F9089597FB072E16F400941B
:101CF00007D077FD09D00E94AA0E07FC05D03EF45C
:101D0000909581959F4F0895709561957F4F0895A7
:101D1000A1E21A2EAA1BBB1BFD010DC0AA1FBB1FEF
:101D2000EE1FFF1FA217B307E407F50720F0A21B61
:101D3000B30BE40BF50B661F771F881F991F1A94CE
:101D400069F760957095809590959B01AC01BD01F8
:101D5000CF010895AA1BBB1B51E107C0AA1FBB1FDF
:101D6000A617B70710F0A61BB70B881F991F5A9527
:101D7000A9F780959095BC01CD010895EE0FFF1F46
:101D80000590F491E02D099410E0C3EAD0E004C07E
:101D9000FE010E94BE0E2196C43AD107C9F7F894FD
:021DA000FFCF73
:101DA200000000000702A4029002540274024902D9
:101DB200000000004D04A402D101E401B201C701F8
:101DC2006E616E00696E66006F7666002E002C20D2
:041DD200000A000003
:00000001FF
